:1000000000308A0018280000243084008313000880
:10001000031917280630F800F701F70B0D28F80B25
:100020000C287B30F700F70B1328800B0A280800F8
:1000300003081F398300FF30A00083161F149F148C
:100040001F159F1107309C0083138312A201A10189
:100050002310831681130030F800063883129200B3
:10006000FF30831692008312201120088316870028
:10007000831207110C3097009501831686148312A2
:1000800086187B2823187B282314A201A1012208AB
:10009000033C031C7328031D51282108FE3C031C4C
:1000A00073282208F9002108F800F90CF80CF90C63
:1000B000F80CF90C78089500F90C790C3039F70038
:1000C0001708CF39770497001430A4000420831652
:1000D0000614831206186E28231073280A30A1070D
:1000E0000318A20A4728231C7B28FF309500170815
:1000F000CF39303897008316061483120618AB28C0
:10010000231CAB2823100330A200FF30A100A1085C
:10011000031D8D28A2080319AA282208F900210826
:10012000F800F90CF80CF90CF80CF90C78089500AB
:10013000F90C790C3039F7001708CF39770497009C
:100140001430A40004200A30A1020030031C013046
:10015000A202872895010A30A40004203D286300EC
:02400E003A3F37
:00000001FF
;PIC16F877A
;CRC=FB2C  CREATED="21-nov-25 12:21"
