:1000000000308A0018280000223084008313000882
:10001000031917280630F800F701F70B0D28F80B25
:100020000C287B30F700F70B1328800B0A280800F8
:1000300003081F39830083161F149F141F159F1177
:1000400007309C0083138810831288100430A100AD
:10005000FA30A2000420A10B2828831688108312EE
:1000600088140430A100FA30A2000420A10B332828
:1000700083160811831208110430A100FA30A2007F
:100080000420A10B3E2883160811831208150430A2
:10009000A100FA30A2000420A10B49288316081100
:1000A000831208110430A100FA30A2000420A10B31
:1000B000542883160811831208150430A100FA3061
:1000C000A2000420A10B5F288316081183120811D7
:1000D0000430A100FA30A2000420A10B6A28831684
:1000E0000811831208150430A100FA30A200042080
:0A00F000A10B752883162328630076
:02400E00323F3F
:00000001FF
;PIC16F877A
;CRC=15D1  CREATED="31-out-25 11:36"
