:1000000002308A00282A00008C24C6265400CE3AEA
:10001000ED32F237BD1263102010201020100000C6
:10002000CC32743961103D10A53120102010201001
:100030000001CF3A74396F103D10A5312010201007
:10004000201000002730840083130008031935288E
:100050000630F800F701F70B2B28F80B2A287B3025
:10006000F700F70B3128800B282808002E183A28B3
:1000700008123B280816831608128312AE1842286D
:100080008812432888168316881283122E194A284C
:1000900008134B280817831608138312AE19522829
:1000A0008813532888178316881300008312891435
:1000B000831689100230F700F70B5C285F280000D8
:1000C000831289108316891083120800AF018316EA
:1000D000081600308312081A0130AF048316881600
:1000E00000308312881A0130F7000310F70D7708EB
:1000F000AF048316081700308312081B0130F70085
:10010000F70DF70DFC30F7057708AF048316881755
:1001100000308312881B0130F700F70DF70DF70D43
:10012000F830F7057708AF042F08F80008008316A9
:100130008910091109108312091183160911081673
:1001400088160817881783120914831609100000EF
:1001500083128914831689100000831266207808A0
:10016000AE0089108316891000008312891483164B
:100170008910BA28BB280000831266207808AD00D9
:1001800089108316891008128812081388138312A5
:100190002E0EF700F030F70577082D04F8007808E8
:1001A000AD00AD1FD52883169F28AB08031DDA28A4
:1001B0000911DB28091583160911000083120910A3
:1001C0008316091000008312891083168910831288
:1001D0002C0EAD000F30AD052D08AE0036202C08DA
:1001E0000F39AD00AE00362008002830A3000C30D7
:1001F000A4000130A5000630A600891083168910DE
:10020000831209118316091183120910831609102C
:1002100008128812081388138910091109100F3069
:100220008312A70022200130A2002208033C031CF5
:1002300021290330AE0036200530A7002220A20A73
:1002400015290230AE0036200530A7002220A20179
:100250002208033C031C382923302207840083131F
:100260000008A700AB012708AC009720A20A2829A4
:100270008A110A123D2A280B3E2941294030A90043
:100280004229A90101302702A90729088038AA00BC
:10029000AB012A08AC00972008002608073A03198A
:1002A0005B290B3A03196029063A03196829023AB7
:1002B00003196E2973290130A700A8003B21782972
:1002C000AB010130AC0097200230A7002220782932
:1002D0000130A7000230A8003B217829AB01103083
:1002E000AC00972078290130AB002608AC0097209D
:1002F00008000B08A2008B13831603178C170C142D
:100300000000000083120313A21B8B1703170C08B5
:100310007F390319CD290313A20003170D08031316
:10032000A30003170F080313A4002208A6004D2101
:10033000230803178D000313240803178F000313EA
:100340000B08A5008B13831603178C170C140000E1
:10035000000083120313A51B8B1703170C0D0E0D42
:100360007F390319CD290313A20003170D080313C6
:10037000A30003170F080313A4002208A6004D21B1
:10038000230803178D000313240803178F008D0A19
:1003900003198F0A03137929031703138A110A1209
:1003A000442A0B08A3008B13831603178C170C1415
:1003B0000000000083120313A31B8B170318082AE5
:1003C00003170C087F390313A30003170D08031349
:1003D000A40003170F080313A5002308A6004D214E
:1003E000240803178D000313250803178F00031338
:1003F0000B08A6008B13831603178C170C14000030
:10040000000083120313A61B8B17A20B082A272AAE
:1004100003170C0D0E0D7F390313A30003170D08EE
:100420000313A40003170F080313A5002308A60055
:100430004D21240803178D000313250803178F008F
:100440008D0A03198F0A03100313A20BD129080088
:1004500003081F398300813083169900A630980065
:1004600090308312980083161F149F141F159F113C
:1004700007309C0083138312F528043003178D0086
:1004800000308F00031379298C1EAE2A8C1E462A59
:100490001A08A1000130A7000230A8003B21210862
:1004A0002F3C03186F2A2108393C031C6F2A0730A0
:1004B00003178D0000308F00031007300313A200D4
:1004C000D1212108A6004D210B3003178D000030EB
:1004D0008F00031407300313A200D121AE2A210894
:1004E000403C0318772A21085A3C03187F2A210828
:1004F000603C0318972A21087A3C031C972A103085
:1005000003178D0000308F00031008300313A20082
:10051000D1212108A6004D21153003178D00003090
:100520008F00031006300313A200D121AE2A193028
:1005300003178D0000308F00031008300313A20052
:10054000D1212108A6004D211E3003178D00003057
:100550008F00031006300313A200D121442A630048
:02400E003A3F37
:00000001FF
;PIC16F877A
;CRC=D372  CREATED="21-nov-25 11:47"
