:1000000000308A003B2800000A108A100A1182077B
:100010003F3406345B344F3466346D347D340734FA
:100020007F346F342608F801250203181A282508A2
:10003000F7002628F7010830A700A50DF70D2608C0
:1000400077020318F700F80DA70B1D2808002530CC
:1000500084008313000803193A280630F800F701DA
:10006000F70B3028F80B2F287B30F700F70B3628DA
:10007000800B2D28080003081F39830083161F14E6
:100080009F141F159F1107309C00831300308800B8
:1000900085008312A1012108A5000A30A6001220C4
:1000A0007808A2002108A5000A30A60012207708CF
:1000B000A300A4012408633C031C862883160512B0
:1000C0008312051622080420A500831688018312D6
:1000D000250888000530A500272083160512831205
:1000E0000512831685128312851623080420A500A5
:1000F000831688018312250888000530A500272073
:100100008316851283128512A40A5A28A10A21088F
:0A0110000A3C031CA1014B28630008
:02400E00323F3F
:00000001FF
;PIC16F877A
;CRC=90FB  CREATED="15-nov-25 18:07"
