:1000000000308A00B02800000330A302031C12282D
:1000100023308400831300080319122810281028A5
:10002000800B0F2808002230840083130008031976
:1000300026280630F800F701F70B1C28F80B1B28C0
:100040007B30F700F70B2228800B19280800A1014C
:100050002108633C031C43288316051083120514F2
:100060000430A200C730A3000420A20B322883165C
:100070000510831205101330A2001320C830A3000E
:100080000420A10A28288A110A12F728A1012108B0
:10009000633C031C69288316051083120514013084
:1000A000A20013200230A200F930A3000420A20B0A
:1000B000542883160510831205101230A200132055
:1000C0000230A200F930A3000420A20B6228A10A8A
:1000D00047288A110A12FF28A1012108633C031C4A
:1000E0008B2883160510831205140230A2001320FA
:1000F000C830A300042083160510831205101130A8
:10010000A20013200430A200C730A3000420A20BD9
:100110008428A10A6D288A110A120729A101210841
:10012000633C031CAD2883160510831205140130AF
:10013000A20013209630A30004208316051083121A
:1001400005101230A20013200530A200A930A30030
:100150000420A20BA628A10A8F288A110A120F29AF
:1001600003081F398300FF30A00083161F149F145B
:100170001F159F1107309C0083131F149F141F1518
:100180009F1183121F108316091283129412A0125A
:100190002008831687008312201620088316870004
:1001A0008312A01120088316870001308312940067
:1001B0000030831694000108C73908388100831283
:1001C00090010030F8009200003083169200073052
:1001D0009C00050885001030F700F70BED280000A3
:1001E0001C0883120D1383169D01831227281430D7
:1001F000A100FA30A2001320A10BF92846280830EC
:10020000A100FA30A2001320A10B01296C281030A4
:10021000A100FA30A2001320A10B09298E28083072
:10022000A100FA30A2001320A10B1129F6286300C7
:02400E003A3F37
:00000001FF
;PIC16F877A
;CRC=A2FA  CREATED="21-nov-25 16:38"
