:1000000000308A001A28000023308400831300087F
:10001000031917280630F800F701F70B0D28F80B25
:100020000C287B30F700F70B1328800B0A288A1165
:100030000A12AB2803081F398300FF30A000831683
:100040001F149F141F159F1107309C0083138312E8
:10005000A201A10183161F109F101F159F111F17CA
:1000600083121F179F1383169F1783121F14831663
:10007000091283129412A01220088316870083129B
:1000800020162008831687008312A01120088316EB
:100090008700013083129400003083169400010819
:1000A000C73908388100831290010030F800063803
:1000B0009200FF30831692008312201120088316CD
:1000C0008700831207110C309700803095001708C5
:1000D000CF399700073083169C0005088500103043
:1000E000F700F70B712800001C0883120D1383160C
:1000F0009D010030F80083121F08C73978049F0063
:100100005230F700F70B8228852800001F151F19B1
:10011000872883161E088312A1001E08A2005230F1
:10012000F700F70B9128942800002208F900210815
:10013000F800F90CF80CF90CF80CF90C780895009B
:10014000F90C790C3039F7001708CF39770497008C
:0A0150003230A30004288628630063
:02400E003A3F37
:00000001FF
;PIC16F877A
;CRC=7173  CREATED="16-nov-25 17:10"
