:1000000002308A000C2A00000A108A100A118207A6
:1000100028340F3401340634A024C6265410321874
:10002000B21AA0060A0020264322A032A0204410C3
:1000300000018C202F22203B6136F53231103D101B
:10004000252675050D00C1174410F630EC3A6519E8
:10005000A01EA012CC3A00003730840083130008A1
:1000600003193F280630F800F701F70B3528F80B85
:1000700034287B30F700F70B3B28800B3228080030
:100080003E184428081245280816831608128312C1
:10009000BE184C2888124D288816831688128312A1
:1000A0003E1954280813552808178316081383127D
:1000B000BE195C2888135D28881783168813891059
:1000C00083128914831689108312891008008316FD
:1000D000091183120911BB08031D70280911712829
:1000E000091583160911A630F700F70B75280000D3
:1000F0008910831289103C0EBD000F30BD053D08EC
:10010000BE0040203C080F39BD00BE004020080062
:10011000831608128312081283168812831288121B
:100120008316081383120813831688138312881307
:1001300083160911831209118316891083128910FD
:100140000F30B7002C200130AD002D08033C031CFC
:10015000B1280330BE0040200530B7002C20AD0A86
:10016000A5280230BE004020AD012D08033C031C31
:10017000C2282D080420AE00BB012E08BC00672059
:10018000AD0AB5288A110A12672A36080C3A0319F3
:10019000D328063A0319DB28073A0319DB28053A66
:1001A0000319F128F628BB010130BC00672002309A
:1001B000B7002C20FB280130B7000230B800380B04
:1001C000E228E5284030B900E628B90101303702BD
:1001D000B90739088038BA00BB013A08BC0067206B
:1001E000FB28BB011030BC006720FB280130BB009E
:1001F0003608BC00672008000B08AD008B1383167F
:1002000003178C170C140000000083120313AD1B9E
:100210008B1703170C087F39031950290313AD00FE
:1002200003170D080313AE0003170F080313AF00E5
:100230002D08B600C5202E0803178D0003132F08C4
:1002400003178F0003130B08B0008B1383160317DB
:100250008C170C140000000083120313B01B8B17C3
:1002600003170C0D0E0D7F39031950290313AD0030
:1002700003170D080313AE0003170F080313AF0095
:100280002D08B600C5202E0803178D0003132F0874
:1002900003178F008D0A03198F0A0313FC28031715
:1002A000031308000B08AE008B13831603178C177B
:1002B0000C140000000083120313AE1B8B170318ED
:1002C000892903170C087F390313AE0003170D08A3
:1002D0000313AF0003170F080313B0002E08B60076
:1002E000C5202F0803178D000313300803178F0054
:1002F00003130B08B1008B13831603178C170C1410
:100300000000000083120313B11B8B17AD0B89296A
:10031000A82903170C0D0E0D7F390313AE00031728
:100320000D080313AF0003170F080313B0002E08C6
:10033000B600C5202F0803178D00031330080317DC
:100340008F008D0A03198F0A03100313AD0B522976
:100350000800B5010408B4003510831B35142E0EB7
:10036000F038B000B007E23EB100323EB3002E08D4
:100370000F39B107B107B307E93EB200B207B207C0
:100380002D0E0F39B207B307B20DB30DB309B30D7C
:100390002D080F39B307B00D0730AF000A30B3078F
:1003A000B203031CCF29B207B103031CD329B10741
:1003B000B003031CD729B007AF03031CDB292F3080
:1003C0008400831307303405341384073330040268
:1003D000031934170008F700031DF629341BF6290A
:1003E000341A082AB419F6292030F929B415341220
:1003F0003030F707AE010408AD002E10831B2E1419
:100400007708B600C5202D08840083132E188317A3
:10041000840A341FE629080003081F398300FF30CF
:10042000A00083161F149F141F159F1107309C00F6
:1004300083138312A201A101A401A301A801A701B2
:10044000A601A501AC01AB01AA01A90183161F10E9
:100450009F101F159F111F1783121F179F138316BD
:100460009F1783121F148316091283129412A0126D
:100470002008831687008312201620088316870021
:100480008312A01120088316870001308312940084
:100490000030831694000108C739083881008312A0
:1004A00090010030F800920000308316920007306F
:1004B0009C00050885001030F700F70B5D2A00004E
:1004C0001C0883120D1383169D0183128828323075
:1004D000B7002C200C30B600C5200C3003178D005F
:1004E00000308F000313FC20133003178D00003001
:1004F0008F000313FC200830AD00FA30B7002C2029
:10050000AD0B7D2A0030F8001F08C73978049F0022
:100510005230F700F70B8A2A8D2A00001F151F1989
:100520008F2A83161E088312A1001E08A2005230D3
:10053000F700F70B992A9C2A00009630B7002C2070
:10054000193003178D0000308F0003100E30031395
:10055000AD005221103084002208AE002108AD0009
:10056000A9210A30B600C5200D30B600C520523092
:10057000F700F70BB92ABC2A00000830F8001F0862
:10058000C73978049F005230F700F70BC52AC82AF4
:1005900000001F151F19CA2A83161E088312A30004
:1005A0001E08A4005230F700F70BD42AD72A000007
:1005B000233003178D0000308F0003100D3003131C
:1005C000AD005221103084002408AE002308AD0095
:0C05D000A9219630B7002C20822A63007D
:02400E003A3F37
:00000001FF
;PIC16F877A
;CRC=E853  CREATED="16-nov-25 13:21"
