:1000000000308A001A28000027308400831300087B
:10001000031917280630F800F701F70B0D28F80B25
:100020000C287B30F700F70B1328800B0A288A1165
:100030000A12332803081F39830083161F149F14E4
:100040001F159F1107309C00831300308800880122
:1000500083128801A201A101A401A301A601A501A7
:100060000130A7000428A10A0319A20AA30A031950
:10007000A40AA50A0319A60AA208031D43282108F9
:10008000283C03184A2883168810023083128806F9
:10009000A201A101A408031D512823080D3C031847
:1000A000582883160811043083128806A401A3017E
:1000B00083168811083083128806A601A50130280E
:0200C0006300DB
:02400E00323F3F
:00000001FF
;PIC16F877A
;CRC=02F1  CREATED="21-nov-25 16:15"
