:1000000000308A003A280000FF00030E8301A1009F
:100010000A08A0008A010408A2007708A300780853
:10002000A4007908A5007A08A600831383128B1E0A
:100030001B280B192C28220884002308F700240809
:10004000F8002508F9002608FA0020088A00210E89
:100050008300FF0E7F0E09008A110A122F28281133
:100060002808831687000430831287060B118A1133
:100070000A121B2803081F398300A701FF30A800BC
:1000800083161F149F141F159F1107309C008313A4
:100090001F149F141F159F1183121F10831609121E
:1000A00083129412A8122808831687008312281638
:1000B0002808831687008312A81128088316870052
:1000C0000130831294000030831694000108C03977
:1000D000073881008530831290000030F8009200CC
:1000E00000308316920007309C0005088500103010
:1000F000F700F70B792800001C0883120D138316F4
:0E0100009D0183128B16C0308B04852863008E
:02400E003A3F37
:00000001FF
;PIC16F877A
;CRC=4F77  CREATED="17-nov-25 10:32"
