:1000000000308A00822800000A108A100A11820734
:10001000FE343834DD347D343B347734F7343C34CB
:10002000FF347F3400340A108A100A118207EE343C
:100030002834CD346D342B346734E7342C34EF342A
:100040006F340034243084008313000803193528EA
:100050000630F800F701F70B2B28F80B2A287B3025
:10006000F700F70B3128800B282808002508F80135
:10007000240203183E282408F7004A28F701083014
:10008000A600A40DF70D250877020318F700F80D58
:10009000A60B41280800A1011430A300A2012208E8
:1000A000633C031C79282308A4000A30A5003620ED
:1000B0007808A10021081320A4008316860183126A
:1000C000240886000130A40022202308A4000A305E
:1000D000A50036207708A10021080420A40083167B
:1000E00086018312240886000130A4002220A20A7F
:1000F0004F2820082302A3002308FF3C031981286E
:100100004E289F2803081F3983000130A0000730C4
:100110009F00831383160513831205178316851416
:10012000831285189F2883160510831205146430E6
:10013000A400222083160510831205104B288A285C
:0201400063005A
:02400E00223F4F
:00000001FF
;PIC16F628A
;CRC=0C2B  CREATED="15-nov-25 16:48"
