:1000000003308A00D02B00000A108A100A118207E0
:1000100028340F3401340634C7326F39E7322024D4
:100020006537F234F13A65100D050000D320C22285
:10003000202A55224F100001CD244329CF214F27DC
:1000400054294F2641224F290D0500014510C62095
:10005000C3244C1000010C2B41264F29A0346E3ACA
:10006000A01EA012E4060A000C2B41264F292033C3
:10007000EC37613AA01EA006A012331732330D05EB
:10008000000E34308400831300080319542806300E
:10009000F800F701F70B4A28F80B49287B30F700E6
:1000A000F70B5028800B472808003B1859280812E6
:1000B0005A280816831608128312BB186128881262
:1000C000622888168316881283123B196928081340
:1000D0006A280817831608138312BB19712888131E
:1000E000722888178316881389108312891483163F
:1000F00089108312891008008316091183120911CF
:10010000B808031D852809118628091583160911C9
:10011000A630F700F70B8A28000089108312891097
:10012000390EBA000F30BA053A08BB00552039081D
:100130000F39BA00BB00552008008316081283123D
:1001400008128316881283128812831608138312EA
:1001500008138316881383128813831609118312D8
:10016000091183168910831289100F30B4004120C1
:100170000130A6002608033C031CC6280330BB0040
:1001800055200530B4004120A60ABA280230BB0031
:100190005520A6012608033C031CD7282608042066
:1001A000A700B8012708B9007C20A60ACA288A112E
:1001B0000A12172C33080C3A0319E828063A0319D7
:1001C000F028073A0319F028053A031906290B29E4
:1001D000B8010130B9007C200230B4004120102960
:1001E0000130B4000230B500350BF728FA28403052
:1001F000B600FB28B60101303402B6073608803855
:10020000B700B8013708B9007C201029B8011030B8
:10021000B9007C2010290130B8003308B9007C20D7
:1002200008000B08A6008B13831603178C170C14F9
:100230000000000083120313A61B8B1703170C0882
:100240007F39031965290313A60003170D0803134B
:10025000A70003170F080313A8002608B300DA202D
:10026000270803178D000313280803178F000313B3
:100270000B08A9008B13831603178C170C140000AE
:10028000000083120313A91B8B1703170C0D0E0D0F
:100290007F39031965290313A60003170D080313FB
:1002A000A70003170F080313A8002608B300DA20DD
:1002B000270803178D000313280803178F008D0AE2
:1002C00003198F0A031311290317031308000B08DE
:1002D000A7008B13831603178C170C140000000063
:1002E00083120313A71B8B1703189E2903170C08EF
:1002F0007F390313A70003170D080313A800031782
:100300000F080313A9002708B300DA2028080317F1
:100310008D000313290803178F0003130B08AA008D
:100320008B13831603178C170C1400000000831224
:100330000313AA1B8B17A60B9E29BD2903170C0DAF
:100340000E0D7F390313A70003170D080313A80030
:1003500003170F080313A9002708B300DA202808A1
:1003600003178D000313290803178F008D0A031943
:100370008F0A03100313A60B672908002D08F80144
:100380002C020318C6292C08F700D229F7010830DF
:10039000AE00AC0DF70D2D0877020318F700F80D2D
:1003A000AE0BC92908002030271E3030A8002608CF
:1003B000F700A61FE329F709F70A7708A6002D30F2
:1003C000A800A71727142608AC006430AD00BE2192
:1003D0007708A60030307807A9002608AC000A305C
:1003E000AD00BE2130307707AB0030307807AA006F
:1003F0002808F700303029020319022AA714A71B86
:100400002715162A2808A9002030A80030302A0213
:1004100003190E2A2714A71BA714162A031D271435
:10042000031D162A2908AA002030A90027191D2A11
:10043000A718202A2718232A262A2808B300DA20FA
:100440002908B300DA202A08B300DA202B08B30009
:10045000DA208A110A12632C8318312A3B30840077
:100460008313F701F801F901FA01BB01BC01BD01D9
:10047000BE013A0839043804370403196F2A2030C2
:10048000BF000310B30DB40DB50DB60DBB0DBC0D03
:10049000BD0DBE0D3A083E02031D582A39083D0223
:1004A000031D582A38083C02031D582A37083B020E
:1004B000031C692A3708BB023808031C380FBC022A
:1004C0003908031C390FBD023A08031C3A0FBE025B
:1004D0000314F70DF80DF90DFA0DBF0B412A3B0877
:1004E0008000840A3C088000840A3D088000840A59
:1004F0003E08800008000408AB002A08AD0003197C
:100500000D2B2908B6002808B5002708B4002608D6
:10051000B300BA01B9012030B8008230B700330807
:100520000319FF2ABB0037080319FF2ABB0703186A
:10053000A02A7F30BB02031CFF2A0319FF2AA42A2A
:100540008130BB070318FF2A3B08F700F801F901C7
:10055000FA013408BF00BF173508BE003608BD00D9
:100560001830BB00BC013D1CCD2A3A08FA07031C19
:10057000BF2AF90A031DBF2AF80A0319BC17390854
:10058000F907031CC62AF80A0319BC173808B50076
:10059000B5173508F8070318BC17BC0DF80CF90C93
:1005A000FA0CBF0CBE0CBD0C0310BB0BB22A013001
:1005B000F7070318FF2AF81BE42ABF0DFA0DF90DFF
:1005C000F80DF7030319FF2ABF1FF52AFA0A031DC6
:1005D000F52AF90A031DF52AF80A031DF52AF80C75
:1005E000F90CFA0CF70A0319FF2A3408BC00380882
:1005F000BC06BC1FFD2AF817032BF813032BF701C9
:10060000F801F901FA017A08A9007908A800780828
:10061000A7007708A600AD0B812A2908B600280894
:10062000B5002708B4002608B3003308B63CB30071
:10063000FA013408B700B4170310B40CB50CB60CAB
:10064000FA0CF90CF80CF70CB30B1C2BB71F332B5F
:10065000F709F809F909FA09F70A0319F80A031959
:10066000F90A0319FA0A7A08A9007908A800780893
:10067000A7007708A600A91F4A2BAB03AB16A60953
:10068000A709A809A909A60A0319A70A0319A80A0C
:100690000319A90A3B30B2009A30B100CA30B00049
:1006A000AF010A30AD002A080319AB0A83142630C3
:1006B000840083132908B6002808B5002708B40071
:1006C0002608B3003208BA003108B9003008B80073
:1006D0002F08B7002C227808F708031D822B2A0A5E
:1006E0002D020319822B2B080319842B0F392D029D
:1006F00003197C2B0318B42BAB1BB42B2B1B842BA3
:100700002030B02B2030AB05AB1E922BAB122A0849
:10071000031DAB037708AB002D30B300DA202B08A4
:10072000F700AB012A082D02031DA02B7708AB00B0
:100730002E30B300DA202B08F7002030AB05003054
:100740003030AB1EB02BAB122A08031DAB03770869
:10075000AB002D30B300DA202B08F700AB013030AE
:10076000F7077708B300DA2083103208B6003108A3
:10077000B5003008B4002F08B300BA01B901B801C0
:100780000A30B7002C227A08B2007908B100780844
:10079000B0007708AF00AD0B562B8A110A12872CD8
:1007A00003081F398300FF30A00083161F149F1415
:1007B0001F159F1107309C0083131F149F141F15D2
:1007C0009F1183121F108316091283129412A01214
:1007D00020088316870083122016200883168700BE
:1007E0008312A01120088316870001308312940021
:1007F0000030831694000108C7390838810083123D
:1008000090010030F800920000308316920007300B
:100810009C00050885001030F700F70B0D2C000038
:100820001C0883120D1383169D0183129D283230FC
:10083000B40041200A30A1009730A500FF30A40089
:100840001F30A3008230A2000C30B300DA200C303D
:1008500003178D0000308F0003131121163003178A
:100860008D0000308F00031311210830A600FA30EC
:10087000B4004120A60B372C0C30B300DA201C301A
:1008800003178D0000308F0003131121263003174A
:100890008D0000308F00031311210830A600FA30BC
:1008A000B4004120A60B4F2C2B3003178D000030D5
:1008B0008F0003100D300313A60067212108A60046
:1008C0001830A700D3290D30B300DA200A30B30066
:1008D000DA200830A600FA30B4004120A60B6B2CB9
:1008E000343003178D0000308F00031011300313D4
:1008F000A6006721023084002508A9002408A8006A
:100900002308A7002208A6000230AA007B2A0D3087
:10091000B300DA200A30B300DA200830A600FA303B
:0C092000B4004120A60B8F2C242C630097
:02400E00723FFF
:00000001FF
;PIC16F877A
;CRC=CAF1  CREATED="15-nov-25 15:41"
