:1000000001308A00A22900000A108A100A11820712
:1000100028340F34013406340C3B6136F53231108C
:100020003D10252675050D002F3084008313000830
:10003000031927280630F800F701F70B1D28F80BE5
:100040001C287B30F700F70B2328800B1A280800A8
:1000500036182C2808122D28081683160812831229
:10006000B618342888123528881683168812831209
:1000700036193C2808133D280817831608138312E5
:10008000B6194428881345288817831688138910C1
:10009000831289148316891083128910080083162D
:1000A000091183120911B308031D58280911592891
:1000B000091583160911A630F700F70B5D2800001B
:1000C000891083128910340EB5000F30B50535083C
:1000D000B600282034080F39B500B60028200800E3
:1000E000831608128312081283168812831288124C
:1000F0008316081383120813831688138312881338
:10010000831609118312091183168910831289102D
:100110000F30AF0014200130A5002508033C031C5C
:1001200099280330B60028200530AF001420A50A16
:100130008D280230B6002820A5012508033C031CA9
:10014000AA2825080420A600B3012608B4004F20E1
:10015000A50A9D288A110A12BE292E080C3A0319F5
:10016000BB28063A0319C328073A0319C328053ADE
:100170000319D928DE28B3010130B4004F20023022
:10018000AF001420E3280130AF000230B000300B84
:10019000CA28CD284030B100CE28B10101302F024D
:1001A000B10731088038B200B3013208B4004F20E3
:1001B000E328B3011030B4004F20E3280130B3002E
:1001C0002E08B4004F2008000B08A6008B138316DE
:1001D00003178C170C140000000083120313A61BD6
:1001E0008B1703181B2903170C087F390313A6006C
:1001F00003170D080313A70003170F080313A80024
:100200002608AE00AD20270803178D000313280829
:1002100003178F0003130B08A9008B138316031712
:100220008C170C140000000083120313A91B8B17FA
:10023000A50B1B293A2903170C0D0E0D7F3903134B
:10024000A60003170D080313A70003170F080313D5
:10025000A8002608AE00AD20270803178D00031361
:10026000280803178F008D0A03198F0A0310031340
:10027000A50BE4288A110A12E929AD010408AC0093
:100280002D10831B2D14260EF038A800A807E23E7F
:10029000A900323EAB0026080F39A907A907AB0712
:1002A000E93EAA00AA07AA07250E0F39AA07AB073D
:1002B000AA0DAB0DAB09AB0D25080F39AB07A80D87
:1002C0000730A7000A30AB07AA03031C6329AA075B
:1002D000A903031C6729A907A803031C6B29A80706
:1002E000A703031C6F2927308400831307302C05D4
:1002F0002C1384072B30040203192C170008F70075
:10030000031D8A292C1B8A292C1A9C29AC198A299D
:1003100020308D29AC152C123030F707A6010408C7
:10032000A5002610831B26147708AE00AD202508F3
:100330008400831326188317840A2C1F7A298A11B4
:100340000A12F02903081F39830083161F149F1413
:100350001F159F1107309C0083131F109F141F153A
:100360009F151F1383121F139F1383169F1383124E
:100370001F14A201A101A401A30170283230AF0013
:1003800014200030F8001F08C73978049F0052304D
:10039000F700F70BC929CC2900001F151F19CE291A
:1003A00083161E088312A1001E08A2005230F70017
:1003B000F70BD829DB2900009630AF0014200C3051
:1003C00003178D0000308F0003100A300313A500BF
:1003D000E428103084002208A6002108A5003D2949
:1003E0000A30AE00AD200D30AE00AD205230F70027
:0C03F000F70BF829FB290000C12963006D
:02400E00323F3F
:00000001FF
;PIC16F877A
;CRC=1F89  CREATED="21-nov-25 17:12"
