:1000000000308A0074280000FF00030E8301A10065
:100010000A08A0008A010408A2007708A300780853
:10002000A4007908A5007A08A600831383120B1E8A
:100030001B288B182C28220884002308F70024088A
:10004000F8002508F9002608FA0020088A00210E89
:100050008300FF0E7F0E09008A110A122F288B10D1
:100060002C08AF00FF30B000F701F8012F08031093
:100070003018F707F70CF80CB018F707F70CF80C66
:100080003019F707F70CF80CB019F707F70CF80C54
:10009000301AF707F70CF80CB01AF707F70CF80C42
:1000A000301BF707F70CF80CB01BF707F70CF80C30
:1000B0007808AC008B108A110A121B282E3084009D
:1000C00083130008031971280630F800F701F70BB5
:1000D0006728F80B66287B30F700F70B6D28800B3C
:1000E00064288A110A12E82803081F398300AB012B
:1000F0000130AC00FF30AD0083161F149F141F1594
:100100009F1107309C00831303308312A700063031
:10011000A8000C30A9000930AA0083161F149F14F0
:100120001F159F1183121F10831609128312941238
:10013000AD122D088316870083122D162D08831605
:1001400087008312AD112D088316870001308312BA
:1001500094000030831694000108C73908388100E4
:10016000831290010030F800920000308316920054
:1001700007309C00050885001030F700F70BBE28FB
:1001800000001C0883120D1383169D0183128B102F
:100190008316011383120B16C0308B042C08AB0797
:1001A000AB1BD6282B08033C031CAB01AB1FDA2882
:1001B0000330AB0027302B07840083130008AE0008
:1001C0008316880183122E0888006430AE005E28F2
:0401D000CE286300D2
:02400E007A3FF7
:00000001FF
;PIC16F877A
;CRC=14C2  CREATED="17-nov-25 11:11"
