:1000000000308A00132800000330A702031C1228C6
:1000100027308400831300080319122810281028A1
:10002000800B0F28080003081F398300FF30A00051
:1000300083161F149F141F159F1107309C008313F4
:100040008312A201A101A401A301A50183161F101F
:100050009F101F159F111F1783121F179F138316C1
:100060009F1783121F148316091283129412A01271
:100070002008831687008312201620088316870025
:100080008312A01120088316870001308312940088
:100090000030831694000108C739083881008312A4
:1000A00090010030F8009200003083169200073073
:1000B0009C00050885001030F700F70B5D28000054
:1000C0001C0883120D1383169D010030F800831263
:1000D0001F08C73978049F005230F700F70B6E28CD
:1000E00071280000A2010130A1002208033C031C7A
:1000F000BA28031D7F282108E83C031CBA280130D8
:10010000A5002508053C031CB628201120088316ED
:100110008700831207152208A600A60AA603031962
:100120009528FF30A70004208E282108A70004206E
:100130002108E83CA3000330A4002208031C220F7E
:10014000A4022011200883168700831207112408B7
:10015000A600A60AA6030319B128FF30A7000420B1
:10016000AA282308A7000420A50A8128A10A0319A8
:10017000A20A75280330A200E830A100A108031DDF
:10018000C428A208031900290130A5002508053C50
:10019000031CFB28201120088316870083120715F3
:1001A0002208A600A60AA6030319DA28FF30A70032
:1001B0000420D3282108A70004202108E83CA3003C
:1001C0000330A4002208031C220FA40220112008DF
:1001D00083168700831207112408A600A60AA60327
:1001E0000319F628FF30A7000420EF282308A700F2
:1001F0000420A50AC62821080319A203A103BE28CA
:0402000072286300FD
:02400E007A3FF7
:00000001FF
;PIC16F877A
;CRC=6F3F  CREATED="16-nov-25 17:20"
