:1000000001308A008B2900000A108A100A11820729
:10001000013401340134013401340134003400343A
:10002000013401340034003400340034013401342C
:10003000003401340134003401340134013401341A
:10004000013400340034013400340134013400340C
:1000500000340134013401340034013401340034FB
:1000600001340134013400340134013401340134E9
:1000700001340134013401340034003400340034DC
:1000800001340134013401340134013401340134C8
:1000900001340134013400340134013436080739A5
:1000A000F700360CF800F80CF80C1F30F80578084B
:1000B00038078400831339188317F801F80AF70A00
:1000C0006228F80DF70B6128B70803196A28780829
:1000D00080046D28F809780880050800B20132080C
:1000E000063C031C842840303207B300B600B70139
:1000F000B901B8014E203308B600B701B90180300C
:10010000B8004E20B20A6F28831688138312881312
:100110008316051283120512831685128312851227
:100120000800831686108312861083160611831228
:100130000611831686118312861583168612831282
:10014000861683160613831206136E2008003530B8
:100150008400831300080319BB280130F800F7015D
:10016000F70BB028F80BAF284A30F700F70BB6288A
:10017000B928800BAD2808008316061483120618D0
:10018000D5281430B500A72083160614831206184C
:10019000D5288316061483120618D2280A30B50013
:1001A000A720C9280130F800D7280030F8008A11AC
:1001B0000A12AC293308F80132020318E228320887
:1001C000F700EE28F7010830B400B20DF70D330840
:1001D00077020318F700F80DB40BE5280800B40106
:1001E0003408063C031C3A2940303407B500320875
:1001F000B6000730B700F701F801360803103718CA
:10020000F707F70CF80CB718F707F70CF80C3719C5
:10021000F707F70CF80CB719F707F70CF80C371AB3
:10022000F707F70CF80CB71AF707F70CF80C371BA1
:10023000F707F70CF80CB71BF707F70CF80C3408A6
:1002400078070420F800F808031D28290030292920
:100250000130F7003508B6007708B700B901B801DA
:100260004E203508B600B701B9018030B8004E20E5
:10027000B40AF0288316881383128817B308031969
:100280004D2983160512831205160530B500A720E7
:1002900083160512831205125829831685128312BC
:1002A00085160530B500A7208316851283128512A6
:1002B000831688138312881308002B08B2000A30B3
:1002C000B300DA207808AE002B08B2000A30B30081
:1002D000DA207708AF00B101B00131082D02031C0C
:1002E0008929031D77292C083002031889292E0833
:1002F000B2000130B300EF200530B0070318B10A97
:100300002F08B200B301EF200530B0070318B10A7F
:100310006D296E20080003081F39830083161F14FF
:100320009F141F159F1107309C0083134E308312BA
:10033000A2002030A100A401A3011F1083161F14E6
:100340009F141F159F110130860081130030880013
:10035000850083129120BC28F8080319882A2408F4
:100360002202031CC429031DB92923082102031CEE
:10037000C42923082102F7002208FA002408031CDC
:10038000240FFA027708C629FA010030A5007A087E
:10039000A60026084E3C031CFD29031DD329250871
:1003A0001F3C031CFD292508203CA7004E30A80057
:1003B0002608031C260FA802270828040319FD2974
:1003C0002808023C0318ED29FF3A031DEB292708F2
:1003D000E73C0318ED29E830EE292708A900290891
:1003E000B500A7202908A1070318A20A2908A70217
:1003F0000030031C0130A802DC292208A4002108D7
:10040000A3008316861183128611831606118312A8
:1004100006150C30AB00FA30B500A720AB0B0B2A49
:10042000B830A1070B3003180C30A2078316061151
:100430008312061183168610831286140830AB00CF
:10044000FA30B500A720AB0B202AD030A107073027
:1004500003180830A20783168612831286128316A9
:100460000613831206170F30AA002A08053C03184A
:10047000482A2A08AB000330AD00E830AC005D210B
:10048000E830A107033003180430A207AA03352A75
:100490000530AA002A0F4D2A692A2A08AB0001302C
:1004A000AD00F430AC005D21F430A1070130031839
:1004B0000230A2070230AB00FA30B500A720AB0B28
:1004C0005C2AF430A107013003180230A207AA0306
:1004D0004A2A831606138312061383168612831282
:1004E00086166E200430AB00FA30B500A720AB0BA7
:1004F000742AE830A107033003180430A2079120C2
:100500008316861083128610831686118312861531
:100510003230B500A7203230A1070318A20AAB2958
:02052000630076
:02400E00713F00
:00000001FF
;PIC16F877A
;CRC=02A3  CREATED="15-nov-25 17:58"
