:1000000000308A00702800000A108A100A11820746
:10001000FE343834DD347D343B347734F7343C34CB
:10002000FF347F3400340A108A100A118207EE343C
:100030002834CD346D342B346734E7342C34EF342A
:100040006F3400342508F801240203182A282408F4
:10005000F7003628F7010830A600A40DF70D250893
:1000600077020318F700F80DA60B2D28080024309E
:1000700084008313000803194A280630F800F701AA
:10008000F70B4028F80B3F287B30F700F70B46288A
:10009000800B3D280800F701F801240803102518FB
:1000A000F707F70CF80CA518F707F70CF80C25194B
:1000B000F707F70CF80CA519F707F70CF80C251A39
:1000C000F707F70CF80CA51AF707F70CF80C251B27
:1000D000F707F70CF80CA51BF707F70CF80CB62878
:1000E00003081F3983000130A00007309F008313ED
:1000F000A1011930A300A2012208633C031CA62819
:100100002308A4000A30A50022207808A1002108B5
:100110001320A4008316860183122408860005306C
:10012000A40037202308A4000A30A5002220770865
:10013000A10021080420A40083168601831224084C
:1001400086000530A4003720A20A7C282008230757
:10015000A30023083B3C031CB1282308193C031CC3
:10016000B8282008A400FF30A5004B287808A0007C
:040170007B28630085
:02400E00223F4F
:00000001FF
;PIC16F628A
;CRC=F177  CREATED="15-nov-25 16:32"
