:1000000000308A0018280000223084008313000882
:10001000031917280630F800F701F70B0D28F80B25
:100020000C287B30F700F70B1328800B0A284C288C
:1000300003081F39830007309F008313831685143C
:10004000831285182728831605108312051483163A
:1000500085148312851C3028831605108312051021
:1000600083160515831205193A2883160510831285
:1000700005143E2883160510831205108316851576
:100080008312851952288316051083120514043033
:10009000A100FA30A2000428A10B492883160510FC
:0800A000831205101E28630005
:02400E00223F4F
:00000001FF
;PIC16F628A
;CRC=8242  CREATED="02-nov-25 12:43"
