:1000000000308A0038280000F801F901F701FA01F0
:100010002B08031D0E282A08031928281030AC00CD
:100020000310A80DA90DF70DFA0D2B087A02031D78
:100030001B282A087702031C24282A08F702031C1D
:10004000FA032B08FA020314F80DF90DAC0B102873
:1000500008000330A902031C3728293084008313C9
:1000600000080319372835283528800B3428080064
:1000700003081F398300A101A001A301A201831677
:100080001F149F141F159F1107309C0083138312A8
:10009000A501A4012508273C031C8F28031D542813
:1000A00024080F3C031C8F2883160811831208159F
:1000B0002508A9002408A800AB010A30AA000420E2
:1000C0007908A1007808A0002108A800A80AA803C0
:1000D00003196E28FF30A900292067282008A900ED
:1000E000292083160811831208112008E83CA20079
:1000F0000330A3002108031C210FA3022308A8003A
:10010000A80AA80303198828FF30A90029208128FC
:100110002208A9002920A40A0319A50A4A28273081
:10012000A7001030A600A608031D9928A7080319E8
:10013000D52883160811831208152708A900260858
:10014000A800AB010A30AA0004207908A1007808B1
:10015000A0002108A800A80AA8030319B328FF30AB
:10016000A9002920AC282008A900292083160811FD
:10017000831208112008E83CA2000330A3002108E4
:10018000031C210FA3022308A800A80AA80303192F
:10019000CD28FF30A9002920C6282208A90029203F
:0E01A00026080319A703A60393284828630026
:02400E00323F3F
:00000001FF
;PIC16F877A
;CRC=9625  CREATED="16-nov-25 15:06"
