:1000000000308A001A2800002D3084008313000875
:10001000031917280630F800F701F70B0D28F80B25
:100020000C287B30F700F70B1328800B0A288A1165
:100030000A12392803081F39830083161F149F14DE
:100040001F159F1107309C00831300308800880122
:1000500083128801A201A101A401A301A601A501A7
:10006000A801A701AA01A901AC01AB010130AD00B3
:100070000428A10A0319A20AA30A0319A40AA50ABB
:100080000319A60AA70A0319A80AA90A0319AA0AA2
:10009000AB0A0319AC0AA208031D52282108F93C37
:1000A0000318592883160810013083128806A2010C
:1000B000A101A408031D60282308A53C0318672894
:1000C00083168810023083128806A401A301A608B3
:1000D000031D6E282508633C031875288316081134
:1000E000043083128806A601A501A808031D7C28F8
:1000F00027083D3C03188328831688110830831293
:100100008806A801A701AA08031D8A282908253CFA
:100110000318912883160812103083128806AA014A
:10012000A901AC08031D98282B08163C03189F282A
:1001300083168812203083128806AC01AB01362862
:0201400063005A
:02400E003A3F37
:00000001FF
;PIC16F877A
;CRC=659F  CREATED="21-nov-25 11:21"
